{
  "_format": "hh-sol-artifact-1",
  "contractName": "Scratch",
  "sourceName": "contracts/Scratch.sol",
  "abi": [
    {
      "inputs": [],
      "stateMutability": "nonpayable",
      "type": "constructor"
    },
    {
      "inputs": [],
      "name": "ReentrancyGuardReentrantCall",
      "type": "error"
    },
    {
      "anonymous": false,
      "inputs": [
        {
          "indexed": true,
          "internalType": "address",
          "name": "sender",
          "type": "address"
        },
        {
          "indexed": true,
          "internalType": "address",
          "name": "recipient",
          "type": "address"
        },
        {
          "indexed": false,
          "internalType": "uint256",
          "name": "amount",
          "type": "uint256"
        },
        {
          "indexed": false,
          "internalType": "string",
          "name": "message",
          "type": "string"
        },
        {
          "indexed": false,
          "internalType": "uint256",
          "name": "timestamp",
          "type": "uint256"
        },
        {
          "indexed": true,
          "internalType": "bytes32",
          "name": "paymentId",
          "type": "bytes32"
        }
      ],
      "name": "PaymentSent",
      "type": "event"
    },
    {
      "inputs": [],
      "name": "getChainId",
      "outputs": [
        {
          "internalType": "uint256",
          "name": "",
          "type": "uint256"
        }
      ],
      "stateMutability": "view",
      "type": "function"
    },
    {
      "inputs": [],
      "name": "getContractBalance",
      "outputs": [
        {
          "internalType": "uint256",
          "name": "",
          "type": "uint256"
        }
      ],
      "stateMutability": "view",
      "type": "function"
    },
    {
      "inputs": [],
      "name": "owner",
      "outputs": [
        {
          "internalType": "address",
          "name": "",
          "type": "address"
        }
      ],
      "stateMutability": "view",
      "type": "function"
    },
    {
      "inputs": [],
      "name": "platformFee",
      "outputs": [
        {
          "internalType": "uint256",
          "name": "",
          "type": "uint256"
        }
      ],
      "stateMutability": "view",
      "type": "function"
    },
    {
      "inputs": [
        {
          "internalType": "address payable",
          "name": "_recipient",
          "type": "address"
        },
        {
          "internalType": "string",
          "name": "_message",
          "type": "string"
        }
      ],
      "name": "sendPayment",
      "outputs": [],
      "stateMutability": "payable",
      "type": "function"
    },
    {
      "inputs": [
        {
          "internalType": "uint256",
          "name": "_newFee",
          "type": "uint256"
        }
      ],
      "name": "updateFee",
      "outputs": [],
      "stateMutability": "nonpayable",
      "type": "function"
    },
    {
      "inputs": [
        {
          "internalType": "address",
          "name": "_newOwner",
          "type": "address"
        }
      ],
      "name": "updateOwner",
      "outputs": [],
      "stateMutability": "nonpayable",
      "type": "function"
    },
    {
      "stateMutability": "payable",
      "type": "receive"
    }
  ],
  "bytecode": "0x60806040526000600155348015601457600080fd5b50600160008190555033600360006101000a81548173ffffffffffffffffffffffffffffffffffffffff021916908373ffffffffffffffffffffffffffffffffffffffff160217905550610f308061006d6000396000f3fe6080604052600436106100745760003560e01c806385d6bff11161004e57806385d6bff11461013a578063880cdc31146101565780638da5cb5b1461017f5780639012c4a8146101aa576100b4565b806326232a2e146100b95780633408e470146100e45780636f9fb98a1461010f576100b4565b366100b4576040517f08c379a00000000000000000000000000000000000000000000000000000000081526004016100ab906107a4565b60405180910390fd5b600080fd5b3480156100c557600080fd5b506100ce6101d3565b6040516100db91906107dd565b60405180910390f35b3480156100f057600080fd5b506100f96101d9565b60405161010691906107dd565b60405180910390f35b34801561011b57600080fd5b506101246101e1565b60405161013191906107dd565b60405180910390f35b610154600480360381019061014f91906108c5565b6101e9565b005b34801561016257600080fd5b5061017d60048036038101906101789190610963565b61051e565b005b34801561018b57600080fd5b506101946105f2565b6040516101a1919061099f565b60405180910390f35b3480156101b657600080fd5b506101d160048036038101906101cc91906109e6565b610618565b005b60015481565b600046905090565b600047905090565b6101f16106f7565b60003411610234576040517f08c379a000000000000000000000000000000000000000000000000000000000815260040161022b90610a5f565b60405180910390fd5b600073ffffffffffffffffffffffffffffffffffffffff168373ffffffffffffffffffffffffffffffffffffffff16036102a3576040517f08c379a000000000000000000000000000000000000000000000000000000000815260040161029a90610acb565b60405180910390fd5b3373ffffffffffffffffffffffffffffffffffffffff168373ffffffffffffffffffffffffffffffffffffffff1603610311576040517f08c379a000000000000000000000000000000000000000000000000000000000815260040161030890610b37565b60405180910390fd5b6000612710600154346103249190610b86565b61032e9190610bf7565b90506000813461033e9190610c28565b90506002600081548092919061035390610c5c565b9190505550600033863442600254604051602001610375959493929190610d36565b6040516020818303038152906040528051906020012090508573ffffffffffffffffffffffffffffffffffffffff166108fc839081150290604051600060405180830381858888f193505050501580156103d3573d6000803e3d6000fd5b506000831180156104335750600073ffffffffffffffffffffffffffffffffffffffff16600360009054906101000a900473ffffffffffffffffffffffffffffffffffffffff1673ffffffffffffffffffffffffffffffffffffffff1614155b156104a257600360009054906101000a900473ffffffffffffffffffffffffffffffffffffffff1673ffffffffffffffffffffffffffffffffffffffff166108fc849081150290604051600060405180830381858888f193505050501580156104a0573d6000803e3d6000fd5b505b808673ffffffffffffffffffffffffffffffffffffffff163373ffffffffffffffffffffffffffffffffffffffff167f884ff6cdcff218929e9ec11c3901f950e4ad81fb33d71255ae67cc45af60f91f858989426040516105069493929190610de2565b60405180910390a450505061051961073d565b505050565b600360009054906101000a900473ffffffffffffffffffffffffffffffffffffffff1673ffffffffffffffffffffffffffffffffffffffff163373ffffffffffffffffffffffffffffffffffffffff16146105ae576040517f08c379a00000000000000000000000000000000000000000000000000000000081526004016105a590610e6e565b60405180910390fd5b80600360006101000a81548173ffffffffffffffffffffffffffffffffffffffff021916908373ffffffffffffffffffffffffffffffffffffffff16021790555050565b600360009054906101000a900473ffffffffffffffffffffffffffffffffffffffff1681565b600360009054906101000a900473ffffffffffffffffffffffffffffffffffffffff1673ffffffffffffffffffffffffffffffffffffffff163373ffffffffffffffffffffffffffffffffffffffff16146106a8576040517f08c379a000000000000000000000000000000000000000000000000000000000815260040161069f90610e6e565b60405180910390fd5b6103e88111156106ed576040517f08c379a00000000000000000000000000000000000000000000000000000000081526004016106e490610eda565b60405180910390fd5b8060018190555050565b600260005403610733576040517f3ee5aeb500000000000000000000000000000000000000000000000000000000815260040160405180910390fd5b6002600081905550565b6001600081905550565b600082825260208201905092915050565b7f5573652073656e645061796d656e742066756e6374696f6e0000000000000000600082015250565b600061078e601883610747565b915061079982610758565b602082019050919050565b600060208201905081810360008301526107bd81610781565b9050919050565b6000819050919050565b6107d7816107c4565b82525050565b60006020820190506107f260008301846107ce565b92915050565b600080fd5b600080fd5b600073ffffffffffffffffffffffffffffffffffffffff82169050919050565b600061082d82610802565b9050919050565b61083d81610822565b811461084857600080fd5b50565b60008135905061085a81610834565b92915050565b600080fd5b600080fd5b600080fd5b60008083601f84011261088557610884610860565b5b8235905067ffffffffffffffff8111156108a2576108a1610865565b5b6020830191508360018202830111156108be576108bd61086a565b5b9250929050565b6000806000604084860312156108de576108dd6107f8565b5b60006108ec8682870161084b565b935050602084013567ffffffffffffffff81111561090d5761090c6107fd565b5b6109198682870161086f565b92509250509250925092565b600061093082610802565b9050919050565b61094081610925565b811461094b57600080fd5b50565b60008135905061095d81610937565b92915050565b600060208284031215610979576109786107f8565b5b60006109878482850161094e565b91505092915050565b61099981610925565b82525050565b60006020820190506109b46000830184610990565b92915050565b6109c3816107c4565b81146109ce57600080fd5b50565b6000813590506109e0816109ba565b92915050565b6000602082840312156109fc576109fb6107f8565b5b6000610a0a848285016109d1565b91505092915050565b7f5061796d656e74206d7573742062652067726561746572207468616e20300000600082015250565b6000610a49601e83610747565b9150610a5482610a13565b602082019050919050565b60006020820190508181036000830152610a7881610a3c565b9050919050565b7f496e76616c696420726563697069656e74000000000000000000000000000000600082015250565b6000610ab5601183610747565b9150610ac082610a7f565b602082019050919050565b60006020820190508181036000830152610ae481610aa8565b9050919050565b7f43616e6e6f742070617920796f757273656c6600000000000000000000000000600082015250565b6000610b21601383610747565b9150610b2c82610aeb565b602082019050919050565b60006020820190508181036000830152610b5081610b14565b9050919050565b7f4e487b7100000000000000000000000000000000000000000000000000000000600052601160045260246000fd5b6000610b91826107c4565b9150610b9c836107c4565b9250828202610baa816107c4565b91508282048414831517610bc157610bc0610b57565b5b5092915050565b7f4e487b7100000000000000000000000000000000000000000000000000000000600052601260045260246000fd5b6000610c02826107c4565b9150610c0d836107c4565b925082610c1d57610c1c610bc8565b5b828204905092915050565b6000610c33826107c4565b9150610c3e836107c4565b9250828203905081811115610c5657610c55610b57565b5b92915050565b6000610c67826107c4565b91507fffffffffffffffffffffffffffffffffffffffffffffffffffffffffffffffff8203610c9957610c98610b57565b5b600182019050919050565b60008160601b9050919050565b6000610cbc82610ca4565b9050919050565b6000610cce82610cb1565b9050919050565b610ce6610ce182610925565b610cc3565b82525050565b6000610cf782610cb1565b9050919050565b610d0f610d0a82610822565b610cec565b82525050565b6000819050919050565b610d30610d2b826107c4565b610d15565b82525050565b6000610d428288610cd5565b601482019150610d528287610cfe565b601482019150610d628286610d1f565b602082019150610d728285610d1f565b602082019150610d828284610d1f565b6020820191508190509695505050505050565b82818337600083830152505050565b6000601f19601f8301169050919050565b6000610dc18385610747565b9350610dce838584610d95565b610dd783610da4565b840190509392505050565b6000606082019050610df760008301876107ce565b8181036020830152610e0a818587610db5565b9050610e1960408301846107ce565b95945050505050565b7f4f6e6c79206f776e657200000000000000000000000000000000000000000000600082015250565b6000610e58600a83610747565b9150610e6382610e22565b602082019050919050565b60006020820190508181036000830152610e8781610e4b565b9050919050565b7f4d61782031302520666565000000000000000000000000000000000000000000600082015250565b6000610ec4600b83610747565b9150610ecf82610e8e565b602082019050919050565b60006020820190508181036000830152610ef381610eb7565b905091905056fea2646970667358221220a6b3e476abcab67caec8d68b8b9cb47d9c66830b560bd6384813ed58a4cd87b364736f6c634300081c0033",
  "linkReferences": {},
  "deployedLinkReferences": {}
}